:020000040000FA
:0600000052EF0BF01200AC
:020006001200E6
:08000800F2A402D0BDEF06F0E6
:100010009EAA02D016EF05F01200F28EF28C1200AA
:10002000FF0EE350196E480E01D04C0EE76EE72E1E
:10003000FED7E76AE72EFED7192EF7D70000120089
:090040004156473A0056472000E2
:0100490000B6
:06004A00A6B2FED7120071
:10005000080020180000F801000005000000490019
:1000600000004602000001000000171800003C02DA
:1000700000000900000015180000FD01000002004A
:100080000000FB170000220200001A000000931776
:10009000000000010000680000007117000000026D
:1000A000000022000000EB1600006801000086003E
:0200B00000004E
:0E00B200D9CFE6FFE1CFD9FFE652DF6ADF6A61
:1000C000DF50146E156A030E145C000E15581DE205
:1000D0000FC110F10EC10FF10EC10FF101010E6B36
:1000E000DFCFE6FFE66A7CEC0AF0E552E552146EDB
:1000F000156A166A145001010E1315500F1316508D
:10010000101325EC00F0DF2ADBD7DF6ADF50146E16
:10011000156A030E145C000E155824E212C113F187
:1001200011C112F111C112F10101116BDF50186AF6
:10013000030F176E000E182217C0E6FF18C0E6FF67
:100140007CEC0AF0E552E552146E156A166A1450FA
:1001500001011113155012131650131325EC00F062
:10016000DF2AD4D70101646B010E666F0B690C693D
:100170000D69080EE66E51EC04F0E552E66A6BD9A3
:10018000E552E552E552E7CFD9FF1200D9CFE6FF9D
:10019000E1CFD9FF070EE126DE6ADD6AD950020FF2
:1001A000E96EDACFEAFF420EEE6E410EEE6E4C0EB5
:1001B000EE6EEE6A060EDB6A0A0E0101675D25E34C
:1001C00004C106F005C107F006C108F007C109F037
:1001D0000A0E0B6E0C6A0D6A0E6A58EC0AF006C025
:1001E0000BF107C00CF108C00DF10101046B056BA8
:1001F000066B076B676BDAEC07F006C000F107C00F
:1002000001F108C002F109C003F179D901016605C5
:100210001BE178EC06F0000917E095EC06F0E76EBC
:10022000060EE7CFDBFFDB500A0803E10101642B78
:100230000BD001016551652BEA6A140FE96E010EBE
:10024000EA22060EDBCFEFFF040E0101645D22E11E
:10025000666BD950020FE66E000EDA20E66E140EC1
:10026000E66E010EE66E23EC08F0E552E552E5522B
:10027000E552F3CFDEFFF4CFDDFFD9CFE9FFDACFD0
:10028000EAFFEE50ED1001E10FD80101646B656BE0
:10029000010E666F070EE15C02E2E16AE552E16E73
:1002A000E552E7CFD9FF1200D9CFE6FFE1CFD9FF62
:1002B0000C0EE126DF6A010EDB6A020EDB6A030E1A
:1002C000DB6A040EDB6A050EDB6AD950060FE96EA5
:1002D000DACFEAFF2B0EEE6EEE6A080EDB6A090E2D
:1002E000DB6AD9500A0FE96EDACFEAFFEE6AEE6AEE
:1002F000D950060FE66E000EDA20E66E140EE66E9A
:10030000010EE66EB8EC08F0E552E552E552E55212
:10031000020EF3CFDBFF030EF4CFDBFFD950060F45
:10032000E66E000EDA20E66E040EDBCFE6FF050E69
:10033000DBCFE6FFB8EC08F0E552E552E552E552B6
:10034000020EF3CFDBFF030EF4CFDBFFF3CF14F08D
:10035000F4CF15F01450151015E0D950080F146E95
:10036000DACF15F0DF50DF2A020D1450F324E96EC6
:100370001550F420EA6E020EDBCFEEFF030EDBCF4A
:10038000EDFFCCD7DF6A0101086B096B0A6BDF5008
:10039000E76E0A0EDBCFE9FF0B0EDBCFEAFFE7507B
:1003A000E926000EEA22EF503BE0DF50E76E0A0E2E
:1003B000DBCFE9FF0B0EDBCFEAFFE750E926000EAB
:1003C000EA22EF502E082AE00A0E0C6E0D6A0E6A21
:1003D00008C107F009C108F00AC109F092EC09F060
:1003E00004C008F105C009F106C00AF1DF50E76E4C
:1003F0000A0EDBCFE9FF0B0EDBCFEAFFE750E92661
:10040000000EEA22EF50D00F146E156A166A1450CF
:10041000010108271550092316500A23DF2AB7D7F0
:1004200008C114F009C115F00AC116F0176A14507A
:1004300001010427155005231650062317500723E2
:10044000672B0C0EE15C02E2E16AE552E16EE552D7
:10045000E7CFD9FF1200D9CFE6FFE1CFD9FF150EC4
:10046000E1265CEC04F0FE0EEA6ADB34FE0BEA36B1
:10047000E96EF80EE926010EEA22EECF14F0EFCF76
:1004800015F0166A14C0E6FF15C0E6FF16C0E6FFB9
:10049000D950010FE66E000EDA20E66E0AEC08F085
:1004A000176E050EE15E1750DF6AD950010F146E0A
:1004B000DACF15F0DF500F011424E96E000E15207D
:1004C000EA6EEF5012E0D950010F146EDACF15F03A
:1004D000DF501424E96E000E1520EA6EEF50E66E30
:1004E00063EC04F0E552DF2AE0D7150EE15C02E28E
:1004F000E16AE552E16EE552E7CFD9FF12000B0E3B
:10050000E96E010EEA6E01011151EE5C1251EE58D6
:100510001351EE5802E280865ED00B0EE96E010E9A
:10052000EA6E0E51EE5C0F51EE581051EE5852E249
:100530000101FC0526E18086DAEC07F0010100519B
:10054000065C146E01510758156E02510858166E5C
:1005500003510958176E050E145C000E1558000E55
:100560001658000E17580CE3DAEC07F006C000F13D
:1005700007C001F108C002F109C003F10101FC6BE1
:1005800028D0FC5126E18096DAEC07F001010051F9
:10059000065C146E01510758156E02510858166E0C
:1005A00003510958176E050E145C000E1558000E05
:1005B0001658000E17580DE3DAEC07F006C000F1EC
:1005C00007C001F108C002F109C003F10101010EE9
:0805D000FC6F01D080961200BF
:0805D800D9CFE6FFE1CFD9FF06
:1005E000030EE126300EF36E010EF3CFDBFF750E26
:1005F000F36E020EF3CFDBFF010EDF6EDF0425E1A9
:1006000005DA0000000083928384000000008386E6
:10061000000000008350800B01E0010EDF6E839626
:100620008386000000008396010EDB06020E01E2C5
:10063000DB06D950010FE96EDACFEAFFEE50ED107C
:1006400003E1ECD9FF0E04D0D9D7E8D9000E00D0D1
:10065000146E030EE15C02E2E16AE552E16E1450B1
:10066000E552E7CFD9FF1200D9CFE6FFE1CFD9FF9E
:10067000839283940000FE0EDB50F00B146E0F0E7D
:100680008C1414108C6E000083860000000083968A
:10069000E552E7CFD9FF1200D9CFE6FFE1CFD9FF6E
:1006A0009BDF839283940000FE0EDB50F00B146EF0
:1006B0000F0E8C1414108C6E000083860000000056
:1006C0008396FE0EDB38F00BF00B146E0F0E8C14BD
:1006D00014108C6E00008386000000008396E552A3
:1006E000E7CFD9FF1200D9CFE6FFE1CFD9FF74DF02
:1006F000838283940000FE0EDB50F00B146E0F0E0D
:100700008C1414108C6E0000838600000000839609
:10071000FE0EDB38F00BF00B146E0F0E8C14141061
:100720008C6E00008386000000008396E552E7CFC0
:10073000D9FF1200D9CFE6FFE1CFD9FF0B0EE1269A
:100740006DD9280EF36E010EF3CFDBFF020EDB6ACC
:10075000010EDBCF14F0DB06020EDBCF15F001E259
:10076000DB061450151006E0080EE66E10EC00F0E3
:10077000E552EED7300EE66E77DFE5520A0EF36EE5
:10078000030EF3CFDBFF040EDB6A030EDBCF14F0A6
:10079000DB06040EDBCF15F001E2DB06145015106A
:1007A00006E0080EE66E10EC00F0E552EED7300ED3
:1007B000E66E5ADFE5520A0EF36E050EF3CFDBFF4D
:1007C000060EDB6A050EDBCF14F0DB06060EDBCF70
:1007D00015F001E2DB061450151006E0080EE66E77
:1007E00010EC00F0E552EED7300EE66E3DDFE5523C
:1007F0000A0EF36E070EF3CFDBFF080EDB6A070E5F
:10080000DBCF14F0DB06080EDBCF15F001E2DB06D0
:100810001450151006E0080EE66E10EC00F0E552DC
:10082000EED7200EE66E20DFE5520A0EF36E090EBB
:10083000F3CFDBFF0A0EDB6A090EDBCF14F0DB0619
:100840000A0EDBCF15F001E2DB061450151006E0AE
:10085000080EE66E10EC00F0E552EED7280EE66EBC
:100860001BDFE552B9DEDF6EDF5010E10F0EE66EE2
:1008700013DFE552010EE66E0FDFE552040EE66E61
:100880000BDFE552060EE66E07DFE5520B0EE15C6C
:1008900003E200D0E16AE552E16EE552E7CFD9FF0D
:1008A0001200D9CFE6FFE1CFD9FFFE0EDBCF01F278
:1008B000E552E7CFD9FF1200010EE66EEDDEE552FC
:1008C0000201006B1200D9CFE6FFE1CFD9FFE6525B
:1008D000FE0EDB500201015D23E1005101E137D042
:1008E000100E005D0EE1800EE66ED6DEE552DF6A88
:1008F000100EDF5C06E2140EE66ECEDEE552DF2A55
:10090000F7D7100EE66EC8DEE552200EE66EEBDE7F
:10091000E552100EE66EC0DEE5520201000717D068
:10092000100E005D05E1C00EE66EB6DEE55208D0A1
:10093000200E005D05E3006B020EE66EADDEE552B3
:10094000FE0EDBCFE6FFCFDEE5520201002BE552C3
:10095000E552E7CFD9FF1200EDDE010EE66E9CDE18
:10096000E5520201006B1200D9CFE6FFE1CFD9FFBB
:10097000E652010EE66E90DEE552DF6A100EDF5C95
:100980001CE2FD0EDBCFE9FFFE0EDBCFEAFFEF50EE
:10099000E66EDF50EA6A020FE96E020EEA22E552C5
:1009A000E750EF6EFD0EDBCFE9FFDB2AFE0EDBCF5B
:1009B000EAFF01E3DB2ADF2AE1D7C00EE66E6CDE38
:1009C000E552DF6A100EDF5C1CE2FD0EDBCFE9FFB3
:1009D000FE0EDBCFEAFFEF50E66EDF50EA6A020F51
:1009E000E96E020EEA22E552E750EF6EFD0EDBCF14
:1009F000E9FFDB2AFE0EDBCFEAFF01E3DB2ADF2A79
:100A0000E1D7E552E552E7CFD9FF1200958E958CDC
:100A1000958A95889596959495921200959E959CA9
:0C0A2000959A95989596959495921200E1
:040A2C00DACFE4FF3A
:100A3000E2CFDAFFE9CFE4FFEACFE4FFF6CFE4FF4D
:100A4000F7CFE4FFF5CFE4FFF3CFE4FFF4CFE4FF0B
:100A5000FACFE4FF00EE00F0140EE80403E3EECF5B
:100A6000E4FFFBD700EE14F0050EE80403E3EECF3D
:100A7000E4FFFBD7E652D9CFE6FFE1CFD9FFE6523C
:100A8000BFEC0AF0DF6E0101AB51AB2BEA6AAE0F8F
:100A9000E96E010EEA22DFCFEFFF400EAB5D01E30E
:100AA000AB6BAD2B9E9AE552E552E7CFD9FFE552ED
:100AB00000EE18F0050EE80403E3E5CFEDFFFBD7E9
:100AC00000EE13F0140EE80403E3E5CFEDFFFBD7CF
:100AD000E5CFFAFFE5CFF4FFE5CFF3FFE5CFF5FF74
:100AE000E5CFF7FFE5CFF6FFE5CFEAFFE5CFE9FF7A
:100AF000E5CFDAFF1100DACFE4FFE2CFDAFFE9CF8A
:100B0000E4FFEACFE4FFE652D9CFE6FFE1CFD9FF19
:100B1000E65201016A5104E1ACA2FED7AC9A1BD0A7
:100B20006951EA6A6B0FE96E010EEA22EFCFDFFF2F
:100B3000DF50AD6E692B400E695D01E3696B000EFD
:100B4000E76E6A19E8AE02D06A3503D0E750D88064
:100B50006A5501E26A07E552E552E7CFD9FFE5524F
:100B6000E5CFEAFFE5CFE9FFE5CFDAFF1100D9CF06
:100B7000E6FFE1CFD9FFE6527C0EDF6ED950FB0FC6
:100B8000E96EFF0EDA20EA6EEE2A000EEE22EE2269
:100B9000EE22D950FB0FE96EFF0EDA20EA6E040E4A
:100BA000E76ED890EF36010EEB36020EEB36030EF1
:100BB000EB36E706F6E1146A480E156EE80E166E7F
:100BC000010E176E14C006F015C007F016C008F02D
:100BD00017C009F0FB0EDBCF0BF0FC0EDBCF0CF0E7
:100BE000FD0EDBCF0DF0FE0EDBCF0EF058EC0AF061
:100BF000FB0E06C0DBFFFC0E07C0DBFFFD0E08C0CE
:100C0000DBFFFE0E09C0DBFFFB0EDBCFE6FFFC0EB9
:100C1000DBCFE6FFDFCFE6FFDBEC09F0E552E55284
:100C2000E552AC8AAC9E9D8A9F889F8AE552E55228
:100C3000E7CFD9FF1200D9CFE6FFE1CFD9FFACA2B1
:100C4000FED701016851682BEA6A6B0FE96E010E4D
:100C5000EA22FE0EDBCFEFFF6A2B400E685D01E358
:100C6000686B010E00D0E552E7CFD9FF1200D9CF53
:100C7000E6FFE1CFD9FF020EE126000E0101E76E8B
:100C80006A19E8AE02D06A3503D0E750D8806A55B9
:100C900023E26951EA6A6B0FE96E010EEA22010E46
:100CA000EFCFDBFFACA2FED7010EDB50AD6EACA2E6
:100CB000FED70101692B400E695D01E3696B000EEF
:100CC000E76E6A19E8AE02D06A3503D0E750D880E3
:100CD0006A5501E26A07D1D7146E020EE15C02E2A6
:100CE000E16AE552E16E1450E552E7CFD9FF1200F8
:100CF000D9CFE6FFE1CFD9FFE652DF6A9D9A000E19
:100D00000101E76EAD19E8AE02D0AD3503D0E75072
:100D1000D880AD5502E2010EDF6E9D8ADF5000D013
:100D2000E552E552E7CFD9FF1200D9CFE6FFE1CF78
:100D3000D9FFE6529D9A0101AC51AC2BEA6AAE0F85
:100D4000E96E010EEA22EFCFDFFF400EAC5D01E35A
:100D5000AC6B000EE76EAD19E8AE02D0AD3503D036
:100D6000E750D880AD5501E2AD079D8ADF5000D035
:0A0D7000E552E552E7CFD9FF12006B
:060D7A00DACFE4FFE2CF36
:100D8000DAFFE9CFE4FFEACFE4FFF6CFE4FFF7CFE5
:100D9000E4FFF5CFE4FFF3CFE4FFF4CFE4FFFACFB5
:100DA000E4FF00EE00F0140EE80403E3EECFE4FFEE
:100DB000FBD700EE14F0050EE80403E3EECFE4FFEA
:100DC000FBD7E652F29402012A2B000E2B232C2B88
:100DD0002D232E2B2F23302B3123322B332334077B
:100DE000355B353504E234510008000E355508E313
:100DF000362B000E372338233923C80E346F356B5A
:100E00002451251107E005D025C2FAFF0201245123
:100E1000F96EFADF22C2E6FF23C2E6FFFAEC0AF01F
:100E2000E552E552E55200EE18F0050EE80403E342
:100E3000E5CFEDFFFBD700EE13F0140EE80403E35B
:100E4000E5CFEDFFFBD7E5CFFAFFE5CFF4FFE5CF28
:100E5000F3FFE5CFF5FFE5CFF7FFE5CFF6FFE5CFF1
:100E6000EAFFE5CFE9FFE5CFDAFF1100DACFE4FFD3
:100E7000E2CFDAFFE9CFE4FFEACFE4FFF6CFE4FF09
:100E8000F7CFE4FFF5CFE4FFF3CFE4FFF4CFE4FFC7
:100E9000FACFE4FF00EE00F0140EE80403E3EECF17
:100EA000E4FFFBD700EE14F0050EE80403E3EECFF9
:100EB000E4FFFBD7E6529E9026C2E6FF27C2E6FF7C
:100EC000DEEC0AF0E552E55202012851291107E053
:100ED00005D029C2FAFF02012851F96EFADFE55266
:100EE00000EE18F0050EE80403E3E5CFEDFFFBD7B5
:100EF00000EE13F0140EE80403E3E5CFEDFFFBD79B
:100F0000E5CFFAFFE5CFF4FFE5CFF3FFE5CFF5FF3F
:100F1000E5CFF7FFE5CFF6FFE5CFEAFFE5CFE9FF45
:100F2000E5CFDAFF1100D9CFE6FFE1CFD9FF9F0E61
:100F3000E66E16EC0BF0E552FD0EDBCF22F2FE0E54
:100F4000DBCF23F2FB0EDBCF24F2FC0EDBCF25F24E
:100F5000FD0EDBCFE6FFFE0EDBCFE6FFFAEC0AF07C
:100F6000E552E552E552E7CFD9FF1200D9CFE6FFAF
:100F7000E1CFD9FFC50EE66E9EEC0AF0E552FD0EFC
:100F8000DBCFE6FFFE0EDBCFE6FFDEEC0AF0E5523C
:100F9000E5529F80FD0EDBCF26F2FE0EDBCF27F25F
:100FA000FB0EDBCF28F2FC0EDBCF29F2E552E7CFB8
:100FB000D9FF1200D9CFE6FFE1CFD9FF040EE12619
:100FC000F29A36C2DFFF010E37C2DBFF020E38C2D3
:100FD000DBFF030E39C2DBFFF28ADECF06F0DECF85
:100FE00007F0DECF08F0DDCF09F0DD52DD52040E50
:100FF000E15C03E200D0E16AE552E16EE552E7CF41
:10100000D9FF1200F29E0201366B376B386B396BD9
:04101000F28E12004A
:0C101400FB0EE3CFF6FFFC0EE3CFF7FF6E
:10102000FD0EE3CFF8FFFE0EE3CFE9FFFF0EE3CFA7
:10103000EAFFE9CFF3FFEACFF4FF0900F5CFEFFFB6
:10104000EE66FBD71200D9CFE6FFDACFE6FFFC0E43
:10105000E3CFE9FFFD0EE3CFEAFFEF5016E0FA0E13
:10106000E3CFD9FFFB0EE3CFDAFFE9CFF3FFEACFFF
:10107000F4FFDE500CE0EF5C02E1EE50FAD7F3CF64
:10108000E9FFF4CFEAFFEE50E8D7F36AF46AFF0E07
:10109000E3CFDAFFE552FF0EE3CFD9FFE5521200AE
:1010A000FE0EE3CFE9FFFF0EE3CFEAFFFD0EE350B4
:1010B000EF5C05E0EE66FAD7F36AF46A04D0E9CF94
:1010C000F3FFEACFF4FF1200D9CFE6FFDACFE6FF55
:1010D000FC0EE3CFE9FFFD0EE3CFEAFFEF500DE09A
:1010E000FA0EE3CFD9FFFB0EE3CFDAFFDE5003E0C9
:1010F000EF5C06E0FBD7EE50F1D7F36AF46A04D058
:10110000E9CFF3FFEACFF4FFFF0EE3CFDAFFE552BA
:10111000FF0EE3CFD9FFE5521200D9CFE6FFDACFB9
:10112000E6FFFC0EE3CFE9FFFD0EE3CFEAFFEF5051
:101130000CE0FA0EE3CFD9FFFB0EE3CFDAFFDE506F
:1011400004E0EF5CFCE1EE50F2D7FC0EE350E95E08
:10115000FD0EE350EA5AE9CFF3FFEACFF4FFFF0EAA
:10116000E3CFDAFFE552FF0EE3CFD9FFE5521200DD
:10117000D9CFE6FFDACFE6FFE1CFD9FFE2CFDAFF42
:10118000E652E6526BD8EE50ED1006E1FC0EFDC1C2
:10119000DBFFFD0EFEC1DBFF68D8FC0EDBCFE6FFF8
:1011A000FD0EDBCFE6FF8DEC08F0E552E552E5528F
:1011B000E552F3CF14F0F4CF15F050D8F350EE26EB
:1011C0001550ED2259D8EF5003E1F36AF46A3ED08E
:1011D000FC0EDBCFDEFFDBCFDDFF47D8DECFE6FF47
:1011E000DDCFE6FF64EC08F0E552E552E552E5524A
:1011F000FC0EF3CFDBFFFD0EF4CFDBFF2FD8EE505C
:10120000ED100FE1E66ADECFE6FFDDCFE6FF50EC42
:1012100008F0E552E552E552F3CFFDF1F4CFFEF1CF
:101220000DD02AD8EF6AFC0EDBCFFDF1FD0EDBCF2F
:10123000FEF1010E0101FD27000EFE23DECF14F0AA
:10124000DDCF15F014C0F3FF15C0F4FFE552E552F1
:10125000E552E5CFDAFFE7CFD9FF1200D950FC0FF6
:10126000E96EFF0EDA20EA6E1200FA0EDBCFE6FF1F
:10127000FB0EDBCFE6FF1200FC0EDBCFE9FFFD0E1D
:06128000DBCFEAFF1200C3
:0A128600500EF66E000EF76E000E1B
:10129000F86E01010900F550F36F0900F550F46F85
:1012A00003E1F36701D03DD00900F550EE6F09006E
:1012B000F550EF6F0900F550F06F09000900F55087
:1012C000E96E0900F550EA6E090009000900F550C1
:1012D000F16F0900F550F26F09000900F6CFF5F142
:1012E000F7CFF6F1F8CFF7F1EEC1F6FFEFC1F7FF58
:1012F000F0C1F8FF0101F15302E1F25307E00900E8
:10130000F550EE6EF107F8E2F207F9D7F5C1F6FFF6
:10131000F6C1F7FFF7C1F8FF0101F307000EF45B18
:04132000BFD7120021
:0C13240009C013F008C012F007C011F05F
:1013300007500C02F4CF05F0F3CF04F008500D0273
:10134000F4CF07F0F3CF06F00C02F3500526F4506B
:101350000622E86A072211500D02F3500526F450C8
:101360000622E86A072209500C02F3500626F450C0
:10137000072209500D02086AE86A0822F35007267E
:10138000F450082211500E02F3500626F4500722A2
:10139000096AE86A0822092212500E02F350072651
:1013A000F4500822E86A092213500E02F35008266E
:0613B000F4500922000CBC
:0A13B600D9CFE6FFDACFE6FFE1CF62
:1013C000D9FFE2CFDAFFAC6AAB6AFD0EDBB0AC88C6
:1013D000DBA202D0AC8CAB8CDBB4AC8EDBA602D033
:1013E000AB8801D0AB8ADBB8AC849E98DBBAAB8605
:1013F000DBAC02D09D8A01D09D9A9E9ADBAE02D0D2
:101400009D8801D09D98FB0EDB50AF6EFB0EFC0E4D
:10141000DBCF15F015C014F0156A1450B06EAC8A0D
:10142000AB8E949C948EAC50100B04E0AC50800BAF
:1014300001E1948CE552E5CFDAFFE7CFD9FF120046
:10144000D9CFE6FFE1CFD9FFE65232EC0BF0ACEC9E
:1014500004F0000EE66EE66AEF0EE66ED80EE66E5B
:1014600093EC07F0E552E552E552E552E66A4B0E81
:10147000E66EE66AE66AB7EC05F0E552E552E5523B
:10148000E55259EC00F00DEC00F00201C80E2A5DA7
:10149000000E2B5905E363EC0BF002012A6B2B6B5A
:1014A000C6EC00F0F2D7E552E552E7CFD9FF1200C3
:1014B000056A046A036A026A200EE76ED89006364F
:1014C00007360836093602360336043605360B5021
:1014D000025C0C5003580D5004580E50055809E397
:1014E0000B50025E0C50035A0D50045A0E50055A10
:0814F000062AE72EE4D71200E2
:0814F800D9CFE6FFDACFE6FFD1
:10150000E1CFD9FFE2CFDAFFFF0EE76EFC0EDBCFB3
:1015100014F0FD0EDBCF15F0E7501416156A1450C9
:10152000A96EA69CA69EA68000000000A85000D030
:0C153000E552E5CFDAFFE7CFD9FF12004B
:04153C00D9CFE6FF1E
:10154000DACFE6FFE1CFD9FFE2CFDAFFFD0EDB50C5
:101550007E0BCD6EFD0EDBAC02D0CD8E01D0CD9ECC
:10156000CF6ACE6A9E90DBAE02D09D8001D09D9066
:0E157000CD80E552E5CFDAFFE7CFD9FF1200BC
:02157E00D9CFC3
:10158000E6FFDACFE6FFE1CFD9FFE2CFDAFFE6529E
:10159000F20E0101FF17ABAC03D0FF91ABB0FF819E
:1015A000ABB4FF85ABB2FF87AE50DF6EDF50E552C4
:0C15B000E552E5CFDAFFE7CFD9FF1200CB
:0415BC00D9CFE6FF9E
:1015C000DACFE6FFE1CFD9FFE2CFDAFFE652E6520B
:1015D000FC0EDBCFDEFFDBCFDDFF010EDB50CF6E7D
:1015E000DF50CE6EE552E552E552E5CFDAFFE7CFA8
:0415F000D9FF12000D
:0C15F400D9CFE6FFDACFE6FFE1CFD9FF48
:10160000E2CFDAFFE652E652FC0EDBCFDEFFDBCFA5
:10161000DDFF010EDB50D76EDF50D66EE552E5528E
:0C162000E552E5CFDAFFE7CFD9FF12005A
:04162C00D9CFE6FF2D
:10163000DACFE6FFE1CFD9FFE2CFDAFFFD0EDB50D4
:101640007F0BD56ED76AD66AF294FD0EDBAE02D060
:10165000F28A01D0F29AD58EE552E5CFDAFFE7CFD4
:04166000D9FF12009C
:0C1664000F0EC16E700ED3129B8C96907E
:10167000959E959C959A9598959695949592929607
:04168000809612003E
:0C168400000EF36E00EE00F0060E01D820
:101690001200EA6002D0EE6AFCD7F350E960120053
:0416A000EE6AFCD71B
:0C16A40010EE80F020EE80F0F86A019C4F
:1016B00043EC09F003EC00F020EC0AF0FBD7120039
:1016C0000201466B12000201460503E1466B8D9054
:0A16D00003D0010E466F8D8012005A
:0616DA002020202020204A
:0B16E0002020202020202020202000BF
:0516EB000000000000FA
:1016F00000000000000000000000000000000000EA
:1017000000000000000000000000000000000000D9
:1017100000000000000000000000000000000000C9
:1017200000000000000000000000000000000000B9
:1017300000000000000000000000000000000000A9
:101740000000000000000000000000000000000099
:101750000000000000000000000000000000000089
:101760000000000000000000000000000000000079
:011770000078
:0F17710000000000000000000000000000000069
:101780000000000000000000000000000000000059
:0317900000000056
:0D1793000000000000000000000000000049
:1017A0000000000000000000000000000000000039
:1017B0000000000000000000000000000000000029
:1017C0000000000000000000000000000000000019
:1017D0000000000000000000000000000000000009
:1017E00000000000000000000000000000000000F9
:0B17F0000000000000000000000000EE
:0517FB000000000000E9
:1018000000000000000000000000000000C8000010
:051810000000000000D3
:021815000000D1
:091817004944454F4E494353007A
:0518200045004000013D
:020000040030CA
:0100010008F6
:010002001BE2
:0100030012EA
:010005008179
:010006008178
:010008000FE8
:01000900C036
:01000A000FE6
:01000B00E014
:01000C000FE4
:01000D0040B2
:00000001FF
